:020000040000FA
:0400000080312A28F9
:100008007E1480318B1D09280A2812280B1C0D2804
:100018000E2812288431CB24803128280B1F15285C
:10002800162828282100111C1A281B2828282000F7
:10003800111C1F28202828288431B2248031282820
:1000480028282828282828287E10090080312C28CC
:10005800FC308400803085002A30860023308700F9
:100068000030FF00B6308431BF2480317E1020007C
:100078008331152B200020080339A3002308AD0085
:100088002108A4002008A300240DA40CA30C240D0F
:10009800A40CA30C2308AF002408B000AE01003064
:1000A80030025B3003192F02031C5B285C28682888
:1000B800013030020E3003192F0203186428652816
:1000C8006828AE01AE0A68282E08031D6C286E2821
:1000D80001306F280030A30022088600870123081A
:1000E800810000303002B53003192F02031C7D282F
:1000F8007E288228B430AF020030B03B0030300296
:100108005B3003192F02031C8A288B2899282F0992
:10011800A3003009A400A30A0319A40A2308B43EC3
:10012800AF000030243DB0009928300885002F0822
:1001380084008435850DB23084078130853D003FC9
:10014800A300013FA4003008A6002F08A500A5358C
:10015800A60D2508023EA7000030263DA800B230B3
:10016800270784008130283D8500003FA900013F12
:10017800AA00A909AA09A90A0319AA0A230829078A
:10018800AB0024082A3DAC00300885002F08840005
:100198008435850DB23084078130853D003FA3004A
:1001A800013FA4002C08A6002B08A500A636A50C24
:1001B800A636A50C2508F2002608F3002D08A7008E
:1001C800A8012708F4002808F50084310B248031A1
:1001D80072092000A9007309AA00A90A0319AA0A2A
:1001E80023082907A00024082A3DA100FB280800AD
:1001F8000034003478340434EF34083466340D3471
:10020800DC34113450341634C2341A3433341F34C5
:10021800A13423340C34283474342C34D934303495
:100228003A34353496343934EF343D344234423438
:1002380090344634D9344A341C344F345834533407
:100248008F345734BE345B34E6345F340734643457
:100258002034683431346C3439347034393474347B
:100268002F3478341C347C3400348034DA348334CA
:10027800A93487346D348B3427348F34D634923490
:100288007934963411349A349C349D341B34A13417
:100298008E34A434F334A7344C34AB349734AE34AE
:1002A800D534B1340534B5342734B8343A34BB3492
:1002B8003F34BE343534C1341B34C434F334C6340B
:1002C800BB34C9347334CC341C34CF34B434D13453
:1002D8003C34D434B334D6341A34D9346F34DB34A0
:1002E800B434DD34E734DF340934E2341934E43427
:1002F8001734E6340434E834DE34E934A634EB3415
:100308005C34ED34FF34EE349034F0340E34F2348F
:100318007834F334D034F4341534F6344734F734BD
:100328006534F8347034F9346834FA344C34FB34B6
:100338001C34FC34D934FC348234FD341834FE3493
:100348009934FE340734FF346034FF34A634FF3464
:10035800D834FF34F634FF34FF34FF34FF34FF342D
:10036800F634FF34D834FF34A634FF346034FF3415
:100378000734FF349934FE341834FE348234FD34A3
:10038800D934FC341C34FC344C34FB346834FA342F
:100398007034F9346534F8344734F7341534F634A6
:1003A800D034F4347834F3340E34F2349034F034F6
:1003B800FF34EE345C34ED34A634EB34DE34E93407
:1003C8000434E8341734E6341934E4340934E234B4
:1003D800E734DF34B434DD346F34DB341A34D934E1
:1003E800B334D6343C34D434B434D1341C34CF345C
:1003F8007334CC34BB34C934F334C6341B34C434FA
:100408003534C1343F34BE343A34BB342734B8347D
:100418000534B534D534B1349734AE344C34AB34B8
:10042800F334A7348E34A4341B34A1349C349D3463
:1004380011349A3479349634D634923427348F343C
:100448006D348B34A9348734DA34833400348034FF
:100458001C347C342F34783439347434393470345F
:1004680031346C342034683407346434E6345F340F
:10047800BE345B348F345734583453341C344F34BF
:10048800D9344A349034463442344234EF343D341B
:10049800963439343A343534D934303474342C34CD
:1004A8000C342834A134233433341F34C2341A347E
:1004B80050341634DC34113466340D34EF340834D7
:1004C8007834043400340034200020080339A300B1
:1004D8002308B1002108A4002008A300240DA40CBF
:1004E800A30C240DA40CA30C2308B2002408B30009
:1004F80000303302B530031932020318842A862AE1
:100508000130872A0030A3002208860087012308CB
:10051800810000303302B53003193202031C952ADA
:10052800962A9A2AB430B2020030B33B0030330224
:100538005B3003193202031CA22AA32AB12A32090A
:10054800A3003309A400A30A0319A40A2308B43E8C
:10055800B2000030243DB300B12A3308A4003208A9
:10056800A300A335A40D2308023EA5000030243DB6
:10057800A6002A30A7002330A800250827078600F0
:100588002608283D87003308AA003208A900A935A3
:10059800AA0D2A30AB002330AC0029082B078400B1
:1005A8002A082C3D8500003FAD00013FAE00AD0993
:1005B800AE09AD0A0319AE0A403F2D07AF00413F0F
:1005C8002E3DB0003308A4003208A300A335A40DC3
:1005D8002A30A5002330A600230825078600240812
:1005E800263D87003008A8002F08A700A836A70CCA
:1005F800A836A70C2708F2002808F3003108A9003C
:10060800AA012908F4002A08F50084310B24823154
:10061800403F72072000A000413F733DA100142B0A
:10062800080084316F248331EE30840084308500E3
:10063800003F2000BC00013FBD00BE01BF01C0015A
:10064800C00A262B20003F08F9003E08F800833135
:10065800A623833179082000BD007808BC003D0836
:10066800A1003C08A0004130B4003408A200803149
:100678003E20833120002108B7002008B600410839
:100688000319472B482B4C2B22000C16502B502BB0
:1006980022000C12502B502B20003D08A1003C08D2
:1006A800A0004130B4003408A200823168228331AE
:1006B80020002108B9002008B80041080319652B5B
:1006C800662B6A2B22008C146E2B6E2B22008C104A
:1006D8006E2B6E2B20004008031D732B742B792B77
:1006E800F830BA00FF30BB007D2B0830BA0000306C
:1006F800BB003A08BE073B08BF3D03303F0221302C
:1007080003193E02031C892B8A2B8C2BC001952BC5
:100718004008031D902B912B952BC001C00A952BE7
:10072800952B02302000B5000430B400BA30890B94
:100738009B2BB40B9B2BB50B9B2B0000262B262B3E
:1007480080312A28EE30840084308500003F200064
:10075800A000013FA100EC30840084308500003FF8
:10076800F200013FF3007908F5007808F4008431BD
:100778000B24833172082000A2007308A300230809
:10078800A200A301A209A309A20A0319A30A200827
:100798002207A4002108233DA500A51FD42BD52B93
:1007A800D92BA030A4070530A53D2508F900240859
:1007B800F800DE2B080022008C018E012830210071
:1007C8008C003F308E000F3023008E0017308C00D5
:1007D80024008C018E012100951725008C018E01C3
:1007E800373026008C003F308E0027009311921579
:1007F8009111F130F2000430F3008431E2248331A6
:100808008B1504303D009200033090000800F6017B
:10081800F7010E2C721C112C122C162C7408F607DA
:100828007508F73D0130F435F50D890B172C0130AB
:10083800F336F20C890B1C2C72087304031D252C4B
:10084800262C0E2C272C7708F3007608F2002C2C87
:100858000800200099010B309700DC30960017083B
:10086800FB001608FA00111021001114F030F200F4
:100878000430F3008431DC248431313020009800C6
:1008880008003B00AC01AD01AE01AF01B001A2010F
:10089800A101A401A301A6017F30A500A801013090
:1008A800A700AA01A9018030AB0008003B009C0109
:1008B8009D019E019F01A001920191019401930164
:1008C80096017F3095009801013097009A019901AF
:1008D80080309B0008008331DF2384318431D524A4
:1008E80084318431E824843184315A248431843138
:1008F8004524843184312D24843108002000181DBA
:10090800862C872C8E2C181071089700700896007A
:100918001814932C7108970070089600932C0800FF
:1009280020004208430403199A2C9B2CA12C43084D
:100938008A0042080A008431A12C2700931108007C
:100948002000440845040319AA2CAB2CB12C4508F7
:100958008A0044080A008431B12C080020001110D4
:100968007B08F1007A08F0008431822484318431D4
:10097800A42484310800FE0012001E000130FE028B
:100988000030FF3B7F087E04031DC02C0034270085
:10099800931DCF2CD02CD42C843194248431D42C86
:1009A80008006A3021009900980122009601080089
:1009B80073082000C5007208C400080073082000EE
:1009C800C3007208C2000800163021009700080012
:0C09D800F2340034D0340234080008006F
:020000040001F9
:04000E00A4FFFFDE6E
:00000001FF
